{
  "contractName": "Escrow",
  "abi": [
    {
      "inputs": [],
      "payable": false,
      "stateMutability": "nonpayable",
      "type": "constructor"
    },
    {
      "constant": true,
      "inputs": [
        {
          "internalType": "address",
          "name": "",
          "type": "address"
        }
      ],
      "name": "deposits",
      "outputs": [
        {
          "internalType": "uint256",
          "name": "",
          "type": "uint256"
        }
      ],
      "payable": false,
      "stateMutability": "view",
      "type": "function"
    },
    {
      "constant": false,
      "inputs": [
        {
          "internalType": "address",
          "name": "payee",
          "type": "address"
        }
      ],
      "name": "deposit",
      "outputs": [],
      "payable": true,
      "stateMutability": "payable",
      "type": "function"
    },
    {
      "constant": false,
      "inputs": [
        {
          "internalType": "address payable",
          "name": "payee",
          "type": "address"
        }
      ],
      "name": "withdraw",
      "outputs": [],
      "payable": false,
      "stateMutability": "nonpayable",
      "type": "function"
    }
  ],
  "bytecode": "0x608060405234801561001057600080fd5b50336000806101000a81548173ffffffffffffffffffffffffffffffffffffffff021916908373ffffffffffffffffffffffffffffffffffffffff160217905550610394806100606000396000f3fe6080604052600436106100345760003560e01c806351cff8d914610039578063f340fa011461008a578063fc7e286d146100ce575b600080fd5b34801561004557600080fd5b506100886004803603602081101561005c57600080fd5b81019080803573ffffffffffffffffffffffffffffffffffffffff169060200190929190505050610133565b005b6100cc600480360360208110156100a057600080fd5b81019080803573ffffffffffffffffffffffffffffffffffffffff169060200190929190505050610260565b005b3480156100da57600080fd5b5061011d600480360360208110156100f157600080fd5b81019080803573ffffffffffffffffffffffffffffffffffffffff169060200190929190505050610347565b6040518082815260200191505060405180910390f35b6000809054906101000a900473ffffffffffffffffffffffffffffffffffffffff1673ffffffffffffffffffffffffffffffffffffffff163373ffffffffffffffffffffffffffffffffffffffff161461018c57600080fd5b6000600160008373ffffffffffffffffffffffffffffffffffffffff1673ffffffffffffffffffffffffffffffffffffffff1681526020019081526020016000205490506000600160008473ffffffffffffffffffffffffffffffffffffffff1673ffffffffffffffffffffffffffffffffffffffff168152602001908152602001600020819055508173ffffffffffffffffffffffffffffffffffffffff166108fc829081150290604051600060405180830381858888f1935050505015801561025b573d6000803e3d6000fd5b505050565b6000809054906101000a900473ffffffffffffffffffffffffffffffffffffffff1673ffffffffffffffffffffffffffffffffffffffff163373ffffffffffffffffffffffffffffffffffffffff16146102b957600080fd5b600034905080600160008473ffffffffffffffffffffffffffffffffffffffff1673ffffffffffffffffffffffffffffffffffffffff1681526020019081526020016000205401600160008473ffffffffffffffffffffffffffffffffffffffff1673ffffffffffffffffffffffffffffffffffffffff168152602001908152602001600020819055505050565b6001602052806000526040600020600091509050548156fea265627a7a723158208430e111b52094ab83a46942a1b59c2edd41f980a81e1d7094781fcdc8b0845264736f6c63430005100032",
  "source": "// SPDX-License-Identifier: MIT\r\n\r\n//set the compiler version\r\npragma solidity ^0.5.16;\r\n\r\n// step 1: create a contract\r\ncontract Escrow{\r\n    \r\n    //create an Ethereum address for our escrow agent\r\n    address agent;\r\n\r\n    //step-4: store the deposits in the escrow\r\n    mapping(address => uint256) public deposits;\r\n\r\n    // Step 6: For security, make sure only agent can do all this\r\n    // onlyAgent() is a function modifier\r\n    modifier onlyAgent(){\r\n        require(msg.sender == agent);\r\n        _;\r\n    }\r\n //step 2: create a constructor that runs when the contract is deployed\r\n    constructor() public  {   \r\n        // msg is a global variable in Ethereum\r\n        agent = msg.sender; \r\n    }\r\n    // step 3: create the deposit function\r\n    function deposit(address payee) public onlyAgent payable {\r\n        uint256 amount = msg.value;\r\n        \r\n        //add all deposits to the escrow\r\n        deposits[payee] = deposits[payee] + amount; \r\n    }\r\n    //step 5: create a withdraw function\r\n    function withdraw(address payable payee) public onlyAgent {\r\n        uint256 payment = deposits[payee];\r\n        \r\n        //deduct the money from the escrow\r\n        deposits[payee] = 0;\r\n        //transfer it to payee\r\n        payee.transfer(payment);\r\n    }\r\n}",
  "sourcePath": "E:\\BLOCK CHAIN\\contracts\\Escrow.sol",
  "compiler": {
    "name": "solc",
    "version": "0.5.16+commit.9c3226ce.Emscripten.clang"
  },
  "schemaVersion": "3.4.14",
  "updatedAt": "2023-07-24T13:23:24.870Z",
  "networkType": "ethereum",
  "devdoc": {
    "methods": {}
  },
  "userdoc": {
    "methods": {}
  }
}